:020000020000FC
:0200000034C00A
:04002C0082C090C03E
:0200540042C0A8
:1000680018950FEF0DBF08E00EBF00E007B90CE7C9
:1000780008B900E400937C000CEA00937A0000E0E1
:1000880000937B0003E000937E0006E004B909EFCB
:1000980005B90091A3000093800000270093880011
:1000A80000938900009109000093810000270093C4
:1000B8008A0000938B0000270093820006E00093DB
:1000C8006F0078940AE7007400937A000E94B700E2
:1000D800FDCF0F930FB70F931F932F9300917C00C1
:1000E80010917C000F70107F003019F0013059F02A
:1000F80012C00091780000917900009300000093ED
:10010800010021E009C00091780000917900009376
:1001180002000093010020E0120F10937C002F9141
:100128001F910F910FBF0F9118950F930FB70F9352
:10013800009100000091010000938800009389005D
:100148000F910FBF0F9118950F930FB70F93009151
:1001580002000091010000938A0000938B000F9128
:100168000FBF0F91189546E257E169E76A95F1F7D5
:0E0178005A95D9F74A95C1F700000000089586
:00000001FF
